:100000000C9425040C9437040C9437040C94612947
:100010000C94F9310C9437040C9437040C94370485
:100020000C9437040C9437040C9437040C94E016A9
:100030000C9437040C9437040C9437040C94370454
:100040000C94F9180C9437040C9470140C9432141A
:100050000C9437040C9437040C9437040C94370434
:100060000C9437040C943704390B1D131D13430BE8
:10007000500B5D0B6A0B1D136E0B1D137C0B1D13B8
:10008000860B900BC10B1D131D131D139A0BA70B91
:10009000B40BE111F2111112F211151228121B12F8
:1000A00021123D124312521269128D129712A3129D
:1000B000AD12AF22B522B822BB22C022C822D22262
:1000C0003E233E233E23DA22DD22E622EF223E2398
:1000D0003E233E233E233E233E23F72201230D23CE
:1000E0001523182321232A233023542D572D5C2D2B
:1000F0005F2D622D652D682D6B2D6E2D712D742D4C
:10010000802D802D802D802D802D802D802D802D87
:100110007A2D772D7D2DC72DCA2DCD2DD02DD32D08
:10012000D62DD92DDC2D084AD73B3BCE016E84BCA1
:10013000BFFDC12F3D6C74319ABD56833DDA3D0041
:10014000C77F11BED9E4BB4C3E916BAAAABE00008A
:1001500000803F05A84CCDB2D44EB93836A9020C68
:1001600050B9918688083CA6AAAA2ABE0000008041
:100170003F3E0D0A002C4C696D3A002C52583A0053
:100180002C4275663A002C002C57506F733A002CA5
:10019000002C4D506F733A003C446F6F72003C432B
:1001A0006865636B003C416C61726D003C486F6D2B
:1001B00065003C486F6C64003C52756E003C4964BD
:1001C0006C65005D0D0A005B302E396A2E323031CD
:1001D00036303732363A000D0A003D00244E005DBD
:1001E0000D0A00205300204600205400204D380006
:1001F000204D3900204D3500204D3400204D330076
:10020000204D3200204D3100204D30002047393440
:10021000002047393300204739310020473930006A
:10022000204732300020473231002047313900204A
:100230004731380020473137002047004733382EF8
:10024000004738300047330047320047310047301D
:10025000005B005D0D0A005B544C4F3A005D0D0AD7
:10026000002C005B4739323A005D0D0A002C003A41
:10027000003330003238005B47005D0D0A003A0061
:100280002C005B5052423A00290D0A00206D617823
:100290002074726176656C2C206D6D002061636343
:1002A000656C2C206D6D2F7365635E3200206D616F
:1002B0007820726174652C206D6D2F6D696E002C35
:1002C00020737465702F6D6D007A007900780020BE
:1002D00028003D0024002028686F6D696E6720703B
:1002E000756C6C2D6F66662C206D6D290D0A0020D3
:1002F00028686F6D696E67206465626F756E6365EF
:100300002C206D736563290D0A2432373D002028A7
:10031000686F6D696E67207365656B2C206D6D2F3E
:100320006D696E290D0A2432363D002028686F6DF4
:10033000696E6720666565642C206D6D2F6D696E32
:10034000290D0A2432353D00290D0A2432343D009E
:100350002028686F6D696E672064697220696E7607
:10036000657274206D61736B3A002028686F6D6947
:100370006E67206379636C652C20626F6F6C290D4A
:100380000A2432333D00202868617264206C696D54
:100390006974732C20626F6F6C290D0A2432323D10
:1003A000002028736F6674206C696D6974732C204B
:1003B000626F6F6C290D0A2432313D00202872656E
:1003C000706F727420696E636865732C20626F6F42
:1003D0006C290D0A2432303D00202861726320749C
:1003E0006F6C6572616E63652C206D6D290D0A243A
:1003F00031333D0020286A756E6374696F6E206426
:100400006576696174696F6E2C206D6D290D0A2403
:1004100031323D00290D0A2431313D00202873740A
:1004200061747573207265706F7274206D61736B87
:100430003A00202870726F62652070696E20696EC4
:10044000766572742C20626F6F6C290D0A2431302E
:100450003D0020286C696D69742070696E73206995
:100460006E766572742C20626F6F6C290D0A2436CB
:100470003D0020287374657020656E61626C652094
:10048000696E766572742C20626F6F6C290D0A2478
:10049000353D00290D0A24343D002028646972206E
:1004A000706F727420696E76657274206D61736B03
:1004B0003A00290D0A24333D00202873746570200A
:1004C000706F727420696E76657274206D61736BE3
:1004D0003A002028737465702069646C6520646537
:1004E0006C61792C206D736563290D0A24323D00FF
:1004F0002028737465702070756C73652C2075737B
:100500006563290D0A24313D0024303D0024242058
:100510002876696577204772626C20736574746908
:100520006E6773290D0A24232028766965772023B6
:1005300020706172616D6574657273290D0A2447BC
:1005400020287669657720706172736572207374F4
:10055000617465290D0A244920287669657720622F
:1005600075696C6420696E666F290D0A244E202817
:1005700076696577207374617274757020626C6F30
:10058000636B73290D0A24783D76616C75652028AC
:1005900073617665204772626C2073657474696E4E
:1005A00067290D0A244E783D6C696E6520287361B9
:1005B0007665207374617274757020626C6F636B02
:1005C000290D0A24432028636865636B2067636FE5
:1005D0006465206D6F6465290D0A245820286B69B5
:1005E0006C6C20616C61726D206C6F636B290D0AFD
:1005F0002448202872756E20686F6D696E672063CD
:1006000079636C65290D0A7E20286379636C652007
:100610007374617274290D0A21202866656564204F
:10062000686F6C64290D0A3F202863757272656ECD
:100630007420737461747573290D0A6374726C2D60
:100640007820287265736574204772626C290D0AE0
:10065000000D0A4772626C20302E396A205B272415
:100660002720666F722068656C705D0D0A005D0D55
:100670000A00526573746F72696E67206465666103
:10068000756C74730050676D20456E640043686537
:10069000636B20446F6F720044697361626C6564C0
:1006A00000456E61626C65640043617574696F6ECC
:1006B0003A20556E6C6F636B656400272448277C75
:1006C0002724582720746F20756E6C6F636B00525F
:1006D0006573657420746F20636F6E74696E7565E1
:1006E000005B000D0A00486F6D696E6720666169E6
:1006F0006C0050726F6265206661696C0041626FC8
:10070000727420647572696E67206379636C65002A
:10071000536F6674206C696D69740048617264205F
:100720006C696D697400414C41524D3A20000D0ACC
:1007300000496E76616C69642067636F6465204967
:10074000443A00556E646566696E65642066656549
:1007500064207261746500556E737570706F727489
:10076000656420636F6D6D616E64004D6F64616CD4
:100770002067726F75702076696F6C6174696F6E37
:10078000004C696E65206F766572666C6F77004805
:100790006F6D696E67206E6F7420656E61626C6547
:1007A0006400416C61726D206C6F636B004E6F74FE
:1007B0002069646C6500454550524F4D207265615B
:1007C00064206661696C2E205573696E67206465CC
:1007D0006661756C74730056616C7565203C2033DE
:1007E00020757365630053657474696E672064696E
:1007F0007361626C65640056616C7565203C2030E5
:1008000000496E76616C69642073746174656D650E
:100810006E7400426164206E756D62657220666F51
:10082000726D617400457870656374656420636FF0
:100830006D6D616E64206C657474657200657272B2
:100840006F723A20006F6B0D0A0011241FBECFEFAC
:10085000D8E0DEBFCDBF16E0A0E0B1E001C01D9240
:10086000AE3CB107E1F70E9439040C9452380C9465
:1008700000000E9400140E944A230E9477190E94DF
:10088000E8318EE1E7E2F5E0DF011D928A95E9F7B4
:1008900081E08093270578948091BD0684FF03C092
:1008A00081E0809328050E94CE140E94FC080E94DB
:1008B0004F130E94D8130E9410290E940A2D0E94F3
:1008C00090240E944B190E94E0270E940E0910926A
:1008D00027051092450510924705109229051092A0
:1008E0002A050E940216DFCFEF92FF921F93CF934B
:1008F000DF9300D000D0CDB7DEB77C01122F8091FE
:10090000BD0685FF0BC0C70149835A836B837C8377
:100910000E946E2B7C816B815A81498180912805D0
:10092000823031F149835A836B837C830E94D314D4
:100930008091270581111CC00E94DF2449815A81C2
:100940006B817C81882339F00E94F91549815A8195
:100950006B817C81E7CF212FC7010F900F900F9003
:100960000F90DF91CF911F91FF90EF900C94E724AF
:100970000F900F900F900F90DF91CF911F91FF90EC
:10098000EF9008952F923F924F925F926F927F92D5
:100990008F929F92AF92BF92CF92DF92EF92FF928F
:1009A0000F931F93CF93DF93CDB7DEB7E7970FB6C3
:1009B000F894DEBF0FBECDBF9C8B8B8B1B013A0121
:1009C00009871A872B873C87AF8A2D961FAD2D97F5
:1009D0002E962FAD2E97298B2F963FAD2F973D8BBF
:1009E00084E0889EA00111245A834983AB89BC8985
:1009F000A40FB51FB98FA88F460D571D5B8F4A8F67
:100A0000FA0180809180A280B3802D913D914D911B
:100A10005C91C501B4010E9400346C8F7D8F8E8F74
:100A20009F8FF4E01F9F800111242B893C89200FA8
:100A3000311F39A328A3A301400F511F5BA34AA371
:100A4000DA014D905D906D907C90F90120813181AB
:100A500042815381C301B2010E9400346CA37DA383
:100A60008EA39FA3A501940150582D873E874F87E1
:100A7000588BD301C201B0588D839E83AF83B88752
:100A8000E981FA81E20DF31D2C8D3D8D4E8D5F8D38
:100A900060817181828193810E94FF332B013C012F
:100AA000F101E00FF11F2CA13DA14EA15FA16081DA
:100AB0007181828193810E94FF334B015C01A3010C
:100AC00092016D857E858F8598890E94173769838D
:100AD0007A838B839C83A50194016D817E818F81B4
:100AE00098850E9417379B01AC0169817A818B81BF
:100AF0009C810E94003469837A838B839C83A50147
:100B000094016D857E858F8598890E9417374B01EA
:100B10005C01A30192016D817E818F8198850E9485
:100B200017379B01AC01C501B4010E94FF33298135
:100B30003A814B815C810E9473342B013C019D8979
:100B4000992399F02DEB37E346E055EBC301B20151
:100B50000E94DC3687FD1DC02BED3FE049EC50E4E0
:100B6000C301B2010E94FF3312C02DEB37E346E010
:100B700055E3C301B2010E94D934181654F02BED8D
:100B80003FE049EC50E4C301B2010E9400342B0164
:100B90003C018090B9069090BA06A090BB06B09038
:100BA000BC0629853A854B855C85CA01B9010E943E
:100BB0000034A50194010E94FF339B01AC01C501E3
:100BC000B4010E9417370E94A4374B015C0120E05A
:100BD00030E040E05FE3C301B2010E94173729858E
:100BE0003A854B855C850E9417379F77A501940154
:100BF0000E94E0340E94B6350E944D357E8B6D8B8D
:100C0000DB01AB2B09F486C14B01A12CB12CBF89B0
:100C1000BB2361F0C501B4010E9479359B01AC0191
:100C2000C701B6010E9417376B017C01C501B401F1
:100C30000E9479354B015C019B01AC01C301B201FB
:100C40000E94E03469877A878B879C87F989E4E082
:100C5000FE9FC00111242B893C89280F391F3A8B34
:100C6000298BF101E80FF91FD9012D913D914D918B
:100C70005C9160817181828193810E94FF33A50123
:100C800094010E94E0346CAB7DAB8EAB9FAB2985A9
:100C90003A854B855C85CA01B9010E9417379B01D3
:100CA000AC0160E070E080E090E40E94FF334B0113
:100CB0005C012BEA3AEA4AE25EE369857A858B8534
:100CC0009C850E9417372B013C0120E030E040E872
:100CD00050E4C501B4010E9400349B01AC01C30182
:100CE000B2010E94173768A779A78AA79BA720E0BF
:100CF00030E040E05FE3C501B4010E9417376CA704
:100D00007DA78EA79FA7198201E010E0ED89FE89DB
:100D10000E171F0709F4FEC0B981BC3008F04AC0A5
:100D20002CA53DA54EA55FA56D817E818F819885FF
:100D30000E9417374B015C0128A539A54AA55BA580
:100D40006D857E858F8598890E941737A50194014E
:100D50000E940034B62EA72E982E892E2CA53DA5D4
:100D60004EA55FA56D857E858F8598890E94173772
:100D70002B013C0128A539A54AA55BA56D817E8183
:100D80008F8198850E9417379B01AC01C301B20186
:100D90000E94FF336D877E878F87988BE981EF5F95
:100DA000E9838B2D9A2DA92DB82D8D839E83AF833A
:100DB000B8876EC0B80180E090E00E94793529853F
:100DC0003A854B855C850E9417374B015C010E9478
:100DD000DD346D837E838F839887C501B4010E94C3
:100DE0009A374B015C01EA8DFB8D80819181A28154
:100DF000B3819C01AD01505829833A834B835C83B6
:100E0000AAA1BBA18D919D910D90BC91A02D88AB05
:100E100099ABAAABBBAB2D813E814F8158856981CF
:100E20007A818B819C810E9417372B013C01A5019F
:100E3000940168A979A98AA99BA90E9417379B01E7
:100E4000AC01C301B2010E9400346D877E878F8799
:100E5000988BA501940169817A818B819C810E9484
:100E600017374B015C012D813E814F81588568A960
:100E700079A98AA99BA90E9417379B01AC01C501DA
:100E8000B4010E94FF336D837E838F83988719821C
:100E90002D853E854F8558896C8D7D8D8E8D9F8DDE
:100EA0000E940034E88DF98D60837183828393837F
:100EB0002D813E814F8158856CA17DA18EA19FA17E
:100EC0000E940034A8A1B9A16D937D938D939C934A
:100ED00013972CA93DA94EA95FA9E989FA896081D8
:100EE0007181828193810E940034A989BA896D93AE
:100EF0007D938D939C9313972F89B701A6018B89BE
:100F00009C890E94740480912705811121C00F5F84
:100F10001F4FFCCE2F89B701A601C101E7960FB67E
:100F2000F894DEBF0FBECDBFDF91CF911F910F911F
:100F3000FF90EF90DF90CF90BF90AF909F908F90F9
:100F40007F906F905F904F903F902F900C9474041F
:100F5000E7960FB6F894DEBF0FBECDBFDF91CF91FD
:100F60001F910F91FF90EF90DF90CF90BF90AF90C7
:100F70009F908F907F906F905F904F903F902F90B9
:100F800008958F929F92AF92BF92CF92DF92EF928D
:100F9000FF924B015C0180912805823009F447C023
:100FA00020E030E040EA51E4C501B4010E94173767
:100FB0000E94B6350E944D356B017C010E9484165B
:100FC00020E030E04AE754E4C501B4010E9417373D
:100FD0004B015C0182E38C9DB0018D9D700D11244D
:100FE00080E090E00E9479359B01AC01C501B4011D
:100FF0000E94FF330E94B6350E944D35CB010E94FE
:10100000D428C114D10499F00E94D31421E0C21A4B
:10101000D1088091270581110AC08FEF90E722E067
:10102000815090402040E1F700C00000EACFFF90DF
:10103000EF90DF90CF90BF90AF909F908F900895EA
:101040000E94052984E00E94952983E00E94952949
:101050000E94D31480912705811104C00E940E09BB
:101060000C9410290895CF92DF92EF920F93CF93B3
:10107000DF9300D000D01F92CDB7DEB76C01809116
:101080002805823009F481C02D8349835A836B83FC
:101090007C830E94841610924305802F0E940D2DA0
:1010A0000E941F2D2D8149815A816B817C8188236B
:1010B000A1F09FB7F8948091470580618093470520
:1010C0009FBF2D8349835A836B837C830E94D314F3
:1010D0007C816B815A8149812D8180912705811105
:1010E00054C0C6010E94740481E0809346059FB7F6
:1010F000F894809145058260809345059FBF0E94CA
:10110000D31480912705811140C080912805811159
:10111000F6CF809146058130A9F4EE2051F08CE0A5
:10112000EBE2F5E0A7E3B5E001900D928A95E1F7D7
:101130000CC09FB7F8948091470580618093470564
:101140009FBF03C081E080934305109246050E9433
:10115000D31480912705811118C00E944B190E9459
:1011600090240E94E0276BE275E0C6010E94E533FF
:101170000F900F900F900F900F90DF91CF910F91E4
:10118000EF90DF90CF900C944E2F0F900F900F9018
:101190000F900F90DF91CF910F91EF90DF90CF9054
:1011A00008958091450584FD26C09FB7F8948091ED
:1011B00045058061809345059FBF0E9449130E94A9
:1011C000D61380912805982F9C7021F490912905C1
:1011D000913089F49FB7843029F4F89480914705C1
:1011E000806204C0F8948091470588608093470529
:1011F0009FBF0C94B51608958FE3E8E4F5E0DF0196
:101200001D928A95E9F76BE675E080E00E940F2257
:10121000811103C087E00C943E2D08956BE275E0C8
:101220008FE595E00C94E5332F923F924F925F92B9
:101230006F927F928F929F92AF92BF92CF92DF92E6
:10124000EF92FF920F931F93CF93DF93CDB7DEB74B
:10125000AB970FB6F894DEBF0FBECDBF98A38F8FAC
:1012600089E3E7E8F5E0DF011D928A95E9F78AE076
:10127000E8E4F5E0A8E8B5E001900D928A95E1F781
:101280001D8E212C312CA12CB12C19A2512C1E8E7B
:1012900066246394712C08E0402E9924939485E091
:1012A000882E8D8DEF8DF8A1E80FF11D00810023B0
:1012B00009F48AC29FEB900F9A3110F00C940F132F
:1012C0008F5F8D8FAE01475E5F4FBE01635E7F4FC4
:1012D0008F8D98A10E942228882311F40C94111359
:1012E000C98CDA8CEB8CFC8CC701B6010E94E53707
:1012F0000E944D35162F70E080E090E00E947B3513
:101300009B01AC01C701B6010E94FF3320E030E031
:1013100048EC52E40E9417370E947A370E944D35FC
:10132000073421F00D3409F450C192C1183209F488
:1013300032C1E8F4143160F4113108F0D7C0143030
:1013400009F45AC008F48EC01A30D9F10C941D1358
:101350001C31B9F128F4163108F4F7C00C941D13B0
:101360001E3179F1163209F47DC00C941D131D3322
:1013700009F40BC1A8F4153309F461C040F41B3221
:1013800009F4ECC0113309F4E9C00C941D131C33AB
:1013900010F00C941D13165310938E0589E000C1B4
:1013A0001C3540F41A3508F0B0C0103509F49BC064
:1013B0000C941D131C3529F01F3508F4BDC00C9486
:1013C0001D136115710531F4BE8DB1110C94131309
:1013D000E1E0EE8F1C3199F038F4143069F01A30E6
:1013E00009F0DBC082E02CC0153349F11C3559F1FE
:1013F0001E3109F0D2C013C090928705CEC061158E
:10140000710549F06A30710511F00C941D1324E048
:101410002093870509C0F3E0F093870505C06115A7
:10142000710521F48092870580E0BFC06A307105A4
:1014300011F00C941D1336E030938705F5CF87E04B
:1014400080938705AAC06115710549F06A3071055E
:1014500011F00C941D1399E090938705E5CF40920D
:101460008705E2CFAE8DA1110C941313B2E0BE8FAD
:10147000123089F028F4112359F0113081F08FC017
:10148000163281F0103579F1133009F088C007C0A9
:101490001092880584C0EE8DE093880580C010937B
:1014A00088057DC06E317105B1F048F46431710575
:1014B00011F00C941D13F4E0F093880512C068320B
:1014C000710561F06233710511F00C941D1337E062
:1014D0003093880506C08092880503C026E02093DB
:1014E000880581E062C04092880559C0123129F018
:1014F000133139F010928C0502C090928C0582E075
:101500004FC082E080938C054BC06115710549F492
:101510001A3519F410928B0502C090928B0583E066
:1015200044C06A30710511F00C941D131A3511F482
:101530000C941D1384E039C01D3519F4909289056F
:1015400002C01092890585E02BC0143119F49092E5
:101550008A0502C010928A0586E022C08E8D811114
:101560000C941313113331F410928D0588E093E03D
:101570009E8F1BC06A30710511F00C941D13909260
:101580008D0588E0A3E0AE8F10C0672B11F00C949E
:101590001D138AE00AC087E003C080E001C081E03B
:1015A000672B19F087E10C943013F30102C0EE0FA2
:1015B000FF1F8A95E2F7CF019F012A213B21232BB0
:1015C00009F443C085E10C943013672B59F71630AA
:1015D00018F4133058F017C0183010F40C941D1381
:1015E0001A3000F11E3159F00C941D13123039F0ED
:1015F0001E3129F0111120C090928F051DC082E08C
:1016000080938F0519C0143029F0153039F090926D
:10161000910506C082E08093910502C01092910569
:101620008CE00BC0193021F082E08093900502C05D
:10163000109290058DE001C08BE0930102C0220F53
:10164000331F8A95E2F7C901B8CFA82AB92A29CE53
:10165000802F992787FD9095A92FB92FFC01E6547B
:10166000F109E531F10508F0E8C7EC5CFF4F0C9497
:101670003D38C0929205D0929305E0929405F09285
:10168000950580E07FC0C0929605D0929705E092C4
:101690009805F092990539A1316039A381E072C0B3
:1016A000C0929A05D0929B05E0929C05F0929D0510
:1016B00089A1826089A382E065C0C0929E05D09214
:1016C0009F05E092A005F092A10599A1946099A3CD
:1016D00083E058C01093A20584E054C0C701B6014E
:1016E0000E9448356093A3057093A4058093A505D7
:1016F0009093A60585E046C0C092A705D092A805A4
:10170000E092A905F092AA0586E03CC0C092AB0524
:10171000D092AC05E092AD05F092AE0587E032C004
:10172000C092AF05D092B005E092B105F092B2053B
:1017300088E028C0C092B405D092B505E092B60505
:10174000F092B705A52DA1605A2E8AE01BC0C09269
:10175000B805D092B905E092BA05F092BB05B52D57
:10176000B2605B2E8BE00EC0C092BC05D092BD056E
:10177000E092BE05F092BF05E52DE4605E2E8CE0A0
:1017800001C089E08301082E02C0000F111F0A94D6
:10179000E2F7980122213321232B09F046C721E6E5
:1017A00033E002C0359527958A95E2F720FF09C0FE
:1017B00020E030E0A901C701B6010E94D93487FDBD
:1017C00036C7202A312A6DCD552029F03E8D3111A2
:1017D00002C082E08E8F25FE0EC08091A3059091FD
:1017E000A405A091A505B091A60580389649A84901
:1017F000B1050CF01EC780918905813031F4FE8D52
:10180000F230A1F520FE1FC731C08091490581113A
:101810002DC020FE1BC080918A05813039F523E35D
:1018200033E34BEC51E46091920570919305809104
:101830009405909195050E941737609392057093D7
:101840009305809394059093950510C0809156055B
:1018500090915705A0915805B09159058093920534
:1018600090939305A0939405B093950530FC10C018
:101870008091520590915305A0915405B091550562
:101880008093AF059093B005A093B105B093B205D6
:1018900080918705813031F426FC02C08CE1E0C6DE
:1018A000E89426F880918C05882341F0813061F01E
:1018B00019A682E088A791E09FA30BC022E029A788
:1018C00031E038A71FA205C0A1E0A9A718A6B2E081
:1018D000BFA380918A05813021F0EE8DE33091F530
:1018E0002AC0B4EBEB2EB5E0FB2E00E010E0C52CD7
:1018F000D12CC601002E02C0959587950A94E2F777
:1019000080FF10C023E333E34BEC51E4D7016D912A
:101910007D918D919C910E941737F70160837183AF
:10192000828393830F5F1F4FF4E0EF0EF11C0330AF
:101930001105F9F6D2CF80918D05813019F424E09C
:10194000521279C68CE0EBE6F5E0DE011D960190BF
:101950000D928A95E1F7B1FC09C0309187053F8F60
:101960003230B9F0383009F4B0C015C180918E051D
:10197000873010F08DE174C690914E05981769F389
:10198000BE01635F7F4F0E940F22882309F465C662
:10199000E4CF511002C08AE163C6C1018075992766
:1019A000892B09F47BCF6091A7057091A8058091E0
:1019B000A9059091AA050E94E5370E944D35673030
:1019C000C8F68091A205843129F0823009F035C62D
:1019D00027FC33C68FEA2822662319F061506F8FE7
:1019E00003C090918E059F8FBE016F5F7F4F8F8DDB
:1019F0000E940F22882309F430C64090A20560900F
:101A00008305709084058090850590908605DE01A1
:101A100011967D01F4EBCF2EF5E0DF2EAFE5AA2E77
:101A2000A5E0BA2E00E010E0E52DF0E0FEA3EDA366
:101A30008DA19EA1002E02C0959587950A94E2F78C
:101A400080FF33C0F4E14F1226C0D50158962D9186
:101A50003D914D915C915B976D917D918D919C91A4
:101A60000E94FF33F60120813181428153810E941F
:101A7000FF33D7016D937D938D939C931397023021
:101A8000A1F4A40193010E94FF33F70160837183E5
:101A9000828393830AC0F60180819181A281B38100
:101AA000F70180839183A283B3830F5F1F4FF4E01C
:101AB000EF0EF11C24E0C20ED11C34E0A30EB11CC9
:101AC0000330110509F0B4CF0FC1552009F463CFDD
:101AD00060908305709084058090850590908605C0
:101AE00004EB15E0EFE5CE2EE5E0DE2E5E018DE0A5
:101AF000A80EB11CE12CF12CA52DB0E0B8A3AF8F3E
:101B00008F8D98A10E2C02C0959587950A94E2F7C7
:101B100080FF26C0F5012081318142815381D601A9
:101B20006D917D918D919C910E94FF33F8012081F0
:101B30003181428153810E94FF33D8016D937D939F
:101B40008D939C931397B2E0EB1214C0A401930100
:101B50000E94FF33F80160837183828393830AC0FC
:101B6000F601808D918DA28DB38DF80180839183D4
:101B7000A283B383FFEFEF1AFF0A0C5F1F4F24E02D
:101B8000C20ED11C34E0A30EB11C83E0E816F104B0
:101B900009F0B6CFA8C09E8D933059F4AF8DA53013
:101BA00009F48FC0A73009F499C0A33009F09BC095
:101BB00080C0552099F340908B05809083059090CC
:101BC0008405A0908505B09086057FE5C72E75E059
:101BD000D72E04EB15E03E01BDE06B0E711CE12C2D
:101BE000F12CE52DF0E0FEA3EDA38DA19EA10E2C1E
:101BF00002C0959587950A94E2F780FD0BC0F60127
:101C000080819181A281B381F80180839183A28335
:101C1000B3833EC0FF8DF730D9F1411028C0D60103
:101C200058962D913D914D915C915B97F3016081A8
:101C30007181828193810E940034D8012D913D9160
:101C40004D915C910E940034F8016083718382831E
:101C50009383F2E0EF121CC0A50194010E940034AE
:101C6000D8016D937D938D939C93139711C0F601CA
:101C70002081318142815381D8016D917D918D9177
:101C80009C910E940034F801608371838283938366
:101C9000FFEFEF1AFF0A24E0C20ED11C0C5F1F4FAA
:101CA00034E0630E711C83E0E816F10409F09DCF67
:101CB00075CF511001C01E8EBE016F5F7F4F86E051
:101CC00007C0511001C01E8EBE016F5F7F4F87E0BD
:101CD0000E940F22882309F4C0C405C080918805A2
:101CE000823008F0ACC41F8E10918805183041F482
:101CF000552009F4B3C19E8D913009F0A2C48BC266
:101D0000AE8DA23009F0AAC11123D9F020E030E055
:101D1000A90160919205709193058091940590912D
:101D200095050E94D934882309F48DC4143028F411
:101D3000123058F4113029F06EC2183008F44DC139
:101D40006AC2511068C21E8E8CC1552009F423CE80
:101D5000FFA1EF2FF0E0FEA3EDA338A5232F30E085
:101D60003BA72AA781E090E03C0108A402C0660CD2
:101D7000771C0A94E2F70FA002C0880F991F0A94FB
:101D8000E2F7682A792A852D90E086219721892B10
:101D900009F45BC4CF01880F991F880F991FFC01BC
:101DA000E957FA4FDC01A85BBA4F57962D913D9148
:101DB0004D915C915A9765A576A587A590A90E943B
:101DC000FF336B017C018AA59BA5880F991F880FA3
:101DD000991FFC01E957FA4FDC01A85BBA4F5796EF
:101DE0002D913D914D915C915A9765A576A587A55A
:101DF00090A90E94FF334B015C0127FE40C0E8948C
:101E000027F82091B4053091B5054091B605509161
:101E1000B70560915F0570916005809161059091B3
:101E200062050E94D934811120C12091B8053091FA
:101E3000B9054091BA055091BB0560916305709159
:101E4000640580916505909166050E94D9348111E1
:101E50000CC12091BC053091BD054091BE0550914B
:101E6000BF05609167057091680580916905909143
:101E70006A050E94D9348111F8C081E2F1C3F9A149
:101E80004F2E512C64207520672809F4E0C321EF00
:101E9000222280918A05813009F45AC00AA51BA527
:101EA000000F111F000F111F05571A4FD8011B9665
:101EB0002D913D914D915C911E97C501B4010E94F9
:101EC000FF332B013C01ADA0BEA0AA0CBB1CAA0C89
:101ED000BB1CF501E557FA4F5F0123853485458525
:101EE0005685C701B6010E94FF33A30192010E94EB
:101EF000DF286B017C01D8011B962D913D914D91FE
:101F00005C911E97F50163857485858596850E9491
:101F1000DF284B015C016093AB057093AC058093A7
:101F2000AD059093AE059B01AC01C701B6010E94BF
:101F3000FF336B017C01E894F7F82AE037ED43EAC0
:101F40005BE3C701B6010E94DC3618164CF163C191
:101F500086E9682E85E0782E00E010E0C201002EB0
:101F600002C0959587950A94E2F780FF10C023E39D
:101F700033E34BEC51E4D3016D917D918D919C91B4
:101F80000E941737F30160837183828393830F5F0D
:101F90001F4FF4E06F0E711C03301105F9F67ECF70
:101FA00020E030E040E05FE3C701B6010E94DC368C
:101FB00018160CF462CF2FE632E143E85AE3C5016C
:101FC000B4010E9417379B01AC01C701B6010E9402
:101FD000DC3618160CF451CF1EC1552009F4DBCCA9
:101FE0002091B4053091B5054091B6055091B705E3
:101FF00060915F0570916005809161059091620527
:102000000E94D934811107C12091B8053091B905DA
:102010004091BA055091BB056091630570916405CC
:1020200080916505909166050E94D9348111F3C0B5
:102030002091BC053091BD054091BE055091BF0572
:1020400060916705709168058091690590916A05B6
:102050000E94D934882309F410CFDDC02E8D2111C0
:10206000DAC0C1018E7D9C7FD9C080918A05813004
:10207000B1F423E333E34BEC51E46091AB05709191
:10208000AC058091AD059091AE050E941737609325
:10209000AB057093AC058093AD059093AE05409071
:1020A000AB055090AC056090AD057090AE0520E09A
:1020B00030E040E850E4C301B2010E941737A301A9
:1020C00092010E9417372B013C01A7019601C7011D
:1020D000B6010E9417379B01AC01C301B2010E94F7
:1020E000FF332B013C01A5019401C501B4010E94FD
:1020F00017379B01AC01C301B2010E94FF332B01D2
:102100003C0120E030E0A9010E94D93487FDA7C23C
:10211000C301B2010E94A4372B013C01A501940127
:10212000C701B6010E94DF289B01AC01C301B201C7
:1021300090580E94E0342B013C0180918805833047
:1021400021F477FA709477F870948091AB059091B0
:10215000AC05A091AD05B091AE0589A39AA3ABA340
:10216000BCA320E030E0A901BC01CD010E94D9341C
:1021700087FF11C077FA709477F8709489A19AA1BB
:10218000ABA1BCA1B0588093AB059093AC05A093D4
:10219000AD05B093AE050DA11EA1000F111F000FDC
:1021A000111F05571A4FA3019201C501B4010E94E6
:1021B00017379B01AC01C701B6010E94FF3320E035
:1021C00030E040E05FE30E941737D8011B966D9323
:1021D0007D938D939C931E970AA51BA5000F111F3D
:1021E000000F111F05571A4FA3019201C701B60135
:1021F0000E9417379B01AC01C501B4010E94003455
:1022000020E030E040E05FE30E941737F801638789
:10221000748785879687C1018E7D907E892B09F012
:1022200018C28091A3059091A405A091A505B09135
:10223000A60580935B0590935C05A0935D05B09324
:102240005E05809189058093490580919205909162
:102250009305A0919405B0919505809356059093B0
:102260005705A0935805B0935905C090AF05D0907D
:10227000B005E090B105F090B205A701960160911C
:1022800052057091530580915405909155050E9417
:10229000D9348823C1F080915105882321F0B701FA
:1022A000A6010E94AE138091AF059091B005A09158
:1022B000B105B091B2058093520590935305A09358
:1022C0005405B09355058091B30580935A058091CC
:1022D000910590915105981771F0409152055091D8
:1022E000530560915405709155050E94AE1380917D
:1022F0009105809351058091900590915005981714
:1023000031F00E94E11380919005809350058091F7
:102310008705813051F46091A7057091A8058091DF
:10232000A9059091AA050E94C10780918C05809310
:102330004C0580918A0580934A053E8D3330F9F42F
:1023400080918D0580934D05813089F48091BC0585
:102350009091BD05A091BE05B091BF058093830506
:1023600090938405A0938505B093860508C01092CC
:102370008305109284051092850510928605809140
:102380008E0590914E05981759F080934E058CE07C
:10239000FE013D96ABE6B5E001900D928A95E1F71E
:1023A00080918B0580934B058091870590E0FC011F
:1023B0003297E830F10508F04BC0E75BFF4F0C9413
:1023C0003D38BE016F5F7F4F8F8D0E94C32080918B
:1023D0004E059F8D89133CC08CE0FE013196ABE623
:1023E000B5E01AC0AE8DAA2349F020E040E050E0ED
:1023F00060E87FEB84EB95E00E94740420E040E00D
:1024000050E060E87FEBCE0101960E9474048CE0FE
:10241000FE013196AFE5B5E001900D928A95E1F7A6
:1024200017C06FE575E086E003C06FE575E087E0F3
:102430000E94C3200DC08CE0E4EBF5E0A7E7B5E017
:10244000EBCF8CE0E7E7F5E0DF011D928A95E9F735
:102450008091880580934805883009F498C0BE8D26
:10246000B23009F094C090E08830910508F086C041
:10247000FC01EF5AFF4F0C943D3820E040E050E063
:1024800060E87FEB0AC04091560550915705609176
:102490005805709159052091490584EB95E00E94FB
:1024A00074046CC0C0905605D0905705E090580554
:1024B000F09059050091AB051091AC052091AD0548
:1024C0003091AE0581E08F93E9A5EF93F8A5FF93D6
:1024D00015C0C0905605D0905705E0905805F09073
:1024E00059050091AB051091AC052091AD053091D7
:1024F000AE051F9289A58F9398A59F938FA0A0905A
:10250000490546E955E064EB75E08FE595E00E94EA
:10251000C2040F900F900F9031C04091560550911A
:1025200057056091580570915905E12C0AC04091FA
:102530005605509157056091580570915905EE2444
:10254000E39400E015C04091560550915705609105
:10255000580570915905E12C0AC0409156055091DB
:1025600057056091580570915905EE24E39401E0F8
:102570002091490584EB95E00E9433088CE0E4EB60
:10258000F5E0AFE5B5E001900D928A95E1F7809115
:102590008F0580934F05882309F45DC00E9484163F
:1025A00090914F0580912805913069F48230A1F116
:1025B0009FB7F894809145058860809345059FBF3B
:1025C0000E94D31429C091E09093480510924C05C5
:1025D00010924B051092490510924E05109251052C
:1025E000109250058230A9F0BE01635F7F4F80E0FA
:1025F0000E940F22882389F18CE0FE013D96ABE614
:10260000B5E001900D928A95E1F70E9449130E946E
:10261000D61387E00E94B62D10924F051CC081E0B2
:102620001FC082E01DC088E11BC089E119C084E0A1
:1026300017C08BE115C085E213C084E111C08EE1A3
:102640000FC08FE10DC086E10BC080E209C083E2BC
:1026500007C084E205C080E003C087E001C082E2D9
:10266000AB960FB6F894DEBF0FBECDBFDF91CF9112
:102670001F910F91FF90EF90DF90CF90BF90AF90A0
:102680009F908F907F906F905F904F903F902F9092
:102690000895E0EBF0E080818F7780830895239A9E
:1026A000249A0C944913CF92DF92EF92FF926A0121
:1026B0007B01811106C0FF90EF90DF90CF900C94CA
:1026C0004913813011F42C9801C02C9A83E880932F
:1026D000B0008091B100887F82608093B10020E0DB
:1026E00030E0A901C701B6010E94D93418161CF7C1
:1026F00020E030E0A901C701B6010E94D93487FD6E
:1027000011C020E030E04AE754E4C701B6010E945E
:10271000DC36181654F4C12CD12C8AE7E82E84E458
:10272000F82E03C0C12CD12C76012CE53FE842E8FD
:102730005EE3C701B6010E94173720E030E040E0B9
:102740005FE30E9400340E94B6350E944D356093CD
:10275000B300FF90EF90DF90CF900895CF93DF9379
:1027600000D000D01F92CDB7DEB7909128059230EF
:10277000A9F04A835B836C837D8389830E948416DE
:102780004A815B816C817D8189810F900F900F90D0
:102790000F900F90DF91CF910C9453130F900F90E7
:1027A0000F900F900F90DF91CF9108954398089567
:1027B0003B9A0C94D613823011F4439A08950C94EA
:1027C000D613CF93DF931F92CDB7DEB79091280534
:1027D000923049F089830E94841689810F90DF919D
:1027E000CF910C94DB130F90DF91CF9108959091CE
:1027F000020180910301891708F48058891B08950C
:10280000E0ECF0E08081826080831092C50080E17E
:102810008093C400E1ECF0E080818061808380815E
:10282000886080838081806880830895E0910101C1
:1028300091E09E0F903409F490E0209100019213F2
:1028400005C02091450524FFF8CF0895F0E0E0543D
:10285000FA4F8083909301018091C1008062809340
:10286000C10008951F920F920FB60F9211248F93FB
:102870009F93EF93FF9380910001E82FF0E0E054E5
:10288000FA4F90819093C6008F5F803409F480E006
:102890008093000190910101891305C08091C100CE
:1028A0008F7D8093C100FF91EF919F918F910F9049
:1028B0000FBE0F901F901895909102018091030117
:1028C000891761F0E92FF0E0E050FA4F80819F5FB7
:1028D000903809F490E09093020108958FEF0895E5
:1028E0001F920F920FB60F9211242F933F934F9385
:1028F0005F936F937F938F939F93AF93BF93EF9368
:10290000FF938091C6008F33A9F050F4883109F10C
:10291000813211F59FB7F89480914505886015C004
:10292000803471F08E37C1F49FB7F89480914505DB
:1029300082600BC09FB7F89480914505816005C007
:102940009FB7F894809145058062809345059FBFAD
:1029500014C00E94D10811C0E091030191E09E0FC4
:10296000903809F490E020910201921731F0F0E0E4
:10297000E050FA4F808390930301FF91EF91BF9154
:10298000AF919F918F917F916F915F914F913F9107
:102990002F910F900FBE0F901F90189580910301FB
:1029A000809302010895EF92FF920F931F93CF93AC
:1029B000DF93D1E008E080E2F82E10E190E4E92E08
:1029C000C0914705CC2389F1D0932805C1FF02C0EF
:1029D00081E00FC0C2FF02C082E00BC0C3FF02C093
:1029E00083E007C0C4FF02C084E003C0C5FF03C08A
:1029F00085E00E948C2DC0FD08C08FB7F89490919F
:102A00004705109247058FBF10C081E00E94B62D88
:102A10009FB7F894809145058F7E809345059FBFB1
:102A20008091450584FFFCCFE8CFC0914505CC23BC
:102A300009F4C0C0C4FF04C081E080932705D2C060
:102A4000C0FF0AC00E94E9309FB7F8948091450505
:102A50008E7F809345059FBF8C2F887609F43CC0FC
:102A600080912805882349F0982F9C7769F1883058
:102A700021F40E949919D09329058091280581118C
:102A800003C092E090932905C6FF09C0883011F475
:102A9000E092280580912905886080932905C3FF6D
:102AA00005C08091280585FF10932805C5FF0CC03F
:102AB00086E00E94B62D8091290581FDC460846066
:102AC00080932905F09228059FB7F89480914505D9
:102AD0008779809345059FBFC1FF48C08C2F8876BA
:102AE000E9F580912805882331F08075B9F180914E
:102AF000290581FF33C08091290582FF1CC0809188
:102B00005105882371F04091520550915305609111
:102B10005405709155050E94531380EA9FE00E946E
:102B2000D42880915005882331F00E94DB1388EE71
:102B300093E00E94D4280E94B524892B59F08091FB
:102B4000290583FD07C0009328050E94BB190E9438
:102B5000951602C010922805109229059FB7F89487
:102B6000809145058D7F809345059FBFC2FF22C0A0
:102B700080912805807391F080912A0581110EC003
:102B80008091290582FF04C00E9449130E94D61338
:102B90008091290582608093290504C0109229053F
:102BA000109228059FB7F894809145058B7F8093FC
:102BB00045059FBF809128058C7711F00E94BB19B5
:102BC00080912805803251F48091290581FF06C04B
:102BD0000E943232811102C010932805809129058C
:102BE0008111EECEDF91CF911F910F91FF90EF9069
:102BF00008959FB7F89480914505826080934505BC
:102C00009FBF0895CF93DF930E94E52D8091280503
:102C1000813021F482E00E94B62D2FC00E94323212
:102C2000882341F0809145058062809345050E948C
:102C3000D31402C01092280584E091E00E9434323F
:102C40001CC08D3079F0DD2399F1893221F4D13027
:102C500009F04CC0D0E00E945C148F3F09F448C0DA
:102C60008A3079F7EC2FF0E0EC5FFE4F10820E9483
:102C7000D31480912705882311F0C0E0EBCF809119
:102C80000401811103C00E943E2DF7CF843229F444
:102C900084E091E00E945332F6CF80912805813084
:102CA00011F489E0F0CF84E091E00E941409EBCFA9
:102CB000813288F28F3279F28832B1F08B33B1F001
:102CC000CF3428F08BE00E943E2DC0E0C4CF2C2FE3
:102CD00030E0CF5F9FE9980FF901EC5FFE4F9A312A
:102CE00008F480528083B7CFD1E0B5CFD2E0B3CF24
:102CF0000E94F9150E94D31480912705882309F4B6
:102D0000AACFDF91CF9108950E94F9150E94D314A4
:102D100080912705811108C00E94B524892BB1F745
:102D200080912805883091F308958091BD0682FF37
:102D300002C0289A01C02898809128058C70A1F0C3
:102D400080918401809398018091850180939701FF
:102D50008091B006880F8450819580939601809170
:102D60006F00826080936F00089580916F008D7F67
:102D700080936F0080918100887F816080938100C3
:102D8000109283018091B3068F3F21F49091470503
:102D9000992349F090912805943029F090E00E9401
:102DA000D42881E001C080E09091BD0692FF02C06E
:102DB00091E08927882311F0289A0895289808958A
:102DC0001F920F920FB60F9211242F933F934F93A0
:102DD0005F936F937F938F939F93AF93BF93CF93A3
:102DE000DF93EF93FF93809183018111EFC19BB13A
:102DF00080919801807E9F71892B8BB98BB1837EE6
:102E000090919701892B8BB98091960186BD82E0C4
:102E100085BD81E08093830178948091AA0190918F
:102E2000AB01892B09F0A4C08091880190918701A2
:102E3000981709F492C0E091880186E0E89FF001BC
:102E40001124E455FE4FF093AB01E093AA01838176
:102E500094819093890080938800808191819093E0
:102E6000A6018093A501A2818091A7018A1771F123
:102E7000A093A70181E1A89FD0011124A053BE4FC8
:102E8000B093A901A093A8011D968D919D910D90DD
:102E9000BC91A02DB695A7959795879580939101A4
:102EA00090939201A0939301B093940180938D012C
:102EB00090938E01A0938F01B0939001809389012C
:102EC00090938A01A0938B01B0938C01C091A801CB
:102ED000D091A901809184019881892780939801DC
:102EE000258189819A81AB81BC81022E04C0B6956F
:102EF000A795979587950A94D2F780939901909317
:102F00009A01A0939B01B0939C018D819E81AF811A
:102F1000B885022E04C0B695A795979587950A9413
:102F2000D2F780939D0190939E01A0939F01B0934F
:102F3000A00189859A85AB85BC8504C0B695A79507
:102F4000979587952A95D2F78093A1019093A20136
:102F5000A093A301B093A4010BC00E94B5169FB724
:102F6000F894809145058460809345059FBF2EC1EC
:102F70000E94252D109297018091990190919A01BC
:102F8000A0919B01B0919C014091890150918A01CF
:102F900060918B0170918C01840F951FA61FB71F44
:102FA0008093890190938A01A0938B01B0938C0147
:102FB000E091A801F091A901458556856785708942
:102FC000481759076A077B0768F524E020939701A3
:102FD0004585568567857089841B950BA60BB70BB5
:102FE0008093890190938A01A0938B01B0938C0107
:102FF000208180912B0590912C05A0912D05B091F9
:103000002E0525FF04C00197A109B10903C001964F
:10301000A11DB11D80932B0590932C05A0932D0528
:10302000B0932E0580919D0190919E01A0919F01EA
:10303000B091A00140918D0150918E0160918F015E
:1030400070919001840F951FA61FB71F80938D016B
:1030500090938E01A0938F01B09390014585568582
:1030600067857089481759076A077B0778F52091AB
:10307000970128602093970145855685678570895B
:10308000841B950BA60BB70B80938D0190938E013B
:10309000A0938F01B0939001208180912F05909192
:1030A0003005A0913105B091320526FF04C001978B
:1030B000A109B10903C00196A11DB11D80932F057F
:1030C00090933005A0933105B09332058091A10112
:1030D0009091A201A091A301B091A401409191010E
:1030E000509192016091930170919401840F951F0A
:1030F000A61FB71F8093910190939201A093930113
:10310000B09394014585568567857089481759079E
:103110006A077B0778F5209197012061209397013A
:103120004585568567857089841B950BA60BB70B63
:103130008093910190939201A0939301B093940195
:1031400020818091330590913405A0913505B0918F
:10315000360527FF04C00197A109B10903C00196F4
:10316000A11DB11D8093330590933405A0933505BF
:10317000B093360580912805843039F48091440558
:10318000909197018923809397018091A501909157
:10319000A60101979093A6018093A501892B69F45C
:1031A0001092AB011092AA01809188018F5F8093E9
:1031B0008801863011F410928801809185019091E8
:1031C000970189278093970110928301FF91EF91D6
:1031D000DF91CF91BF91AF919F918F917F916F912F
:1031E0005F914F913F912F910F900FBE0F901F90C5
:1031F00018951F920F920FB60F9211248F939F93E1
:103200009BB1809185018C71937E892B8BB915BC04
:103210009F918F910F900FBE0F901F901895FF9266
:103220000F931F93CF93DF93109285011092840127
:10323000C0E0D0E00C2F1C2F2091B10630E08C2F85
:103240000C2E02C0359527950A94E2F720FF07C09F
:10325000F09085010E9457238F298093850120914A
:10326000B20630E002C0359527951A95E2F720FFA7
:1032700008C010918401802F0E946123812B8093CC
:1032800084012196C330D105A9F6DF91CF911F911A
:103290000F91FF9008950E94B5168BE2E4E5F1E0EE
:1032A000DF011D928A95E9F783E2E9E8F1E0DF01A9
:1032B0001D928A95E9F71092820110928101109275
:1032C00088011092870181E080938601109283012A
:1032D0000E940F198BB1837E90918501892B8BB948
:1032E0008BB18F7190918401892B8BB908958AB12C
:1032F0008C618AB9209A8AB1806E8AB9E1E8F0E0DF
:1033000080818F7E8083808188608083E0E8F0E028
:1033100080818C7F808380818F708083EEE6F0E0F7
:103320008081887F808314BC15BC8081816080830C
:103330000895CF93DF93C0918101D09182012097AE
:10334000B9F081E08093550160916B0170916C013F
:1033500080916D0190916E019B01AC010E94173725
:10336000698B7A8B8B8B9C8B1092820110928101DE
:10337000DF91CF9108952F923F924F925F926F927B
:103380007F928F929F92AF92BF92CF92DF92EF92F5
:10339000FF920F931F93CF93DF93CDB7DEB7E597DF
:1033A0000FB6F894DEBF0FBECDBF809128058077A1
:1033B00009F40AC220E030E0A90160916B0170912C
:1033C0006C0180916D0190916E010E94D934811140
:1033D000FBC103C68091810190918201892B09F480
:1033E000FAC180918701F6E0F89FF0011124E455BD
:1033F000FE4FFE83ED8380915401828320918101F1
:10340000309182013E872D87D9019596BC91BCA74A
:10341000F901F6A1FDA7D9019796BC91BEA7F901C4
:10342000F0A5FFA720915E0130915F0140916001FE
:10343000509161016CA57DA58B2F9F2F0E94FF33BA
:1034400068A779A78AA79BA720E030E0A9010E947E
:10345000D93487FF04C018A619A61AA61BA6209166
:103460007701288F30917801398F409179014A8F07
:1034700050917A015B8F80916F018C8F90917001D8
:103480009D8FA0917101AE8FB0917201BF8FE091BD
:103490007B01E8A3F0917C01F9A320917D012AA38F
:1034A00030917E013BA3409167014CA3509168018C
:1034B0005DA3809169018EA390916A019FA32091E1
:1034C000730130917401409175015091760128ABE0
:1034D00039AB4AAB5BAB30916B01398340916C01E6
:1034E000498720906D0130906E01509166015F8791
:1034F0008CA58C8B9DA59D8BAEA5AE8BBFA5BF8BE0
:103500003EE3C32E33ECD32E3EE2E32E39E3F32E1B
:10351000188A198A1A8A1B8A26013701EF85E11158
:10352000B4C3AD85BE8591962D913D914D915C9131
:103530009497C701B6010E9417374B015C0120E048
:1035400030E040E05FE30E9417379B01AC016981E6
:103550007985C1010E9400349B01AC01C701B6010D
:103560000E9417379B01AC016C897D898E899F89E8
:103570000E94FF338B018DAB9CAB288D398D4A8D1A
:103580005B8D0E94D93487FF86C3288D398D4A8D83
:103590005B8D6CA57DA58EA59FA50E94FF339B0129
:1035A000AC010E9400346B017C012C8D3D8D4E8D51
:1035B0005F8D69817985C1010E9400349B01AC0156
:1035C000C701B6010E94E0346B017C0128A139A13A
:1035D0004AA15BA1688D798D8A8D9B8D0E94D9341B
:1035E000882309F455C3B1E0BF87FC8DF9832D8D85
:1035F00029872E8C3F8C088D198D3A8D3DAB4B8DD4
:103600004CABA7019601688979898A899B890E94B8
:103610000034688B798B8A8B9B8BA30192010E946B
:10362000D93487FDF2C328A539A54AA55BA5B80101
:103630008DA99CA90E94DC3618160CF4DCC3898184
:103640009985D10180936B0190936C01A0936D01DA
:10365000B0936E01FF85F093660140905A0150903F
:103660005B0160905C0170905D0198014DA95CA9BF
:10367000C301B2010E94173769837A838B839C83CD
:103680000E94C6346B017C01609156017091570114
:1036900080915801909159010E94C6344B015C0100
:1036A000A70196010E94FF330E944D3569877A87F2
:1036B0008B879C87E985FA85AD81BE81ED93FC936C
:1036C000309709F4CDC3209162013091630140919C
:1036D000640150916501688979898A899B890E9472
:1036E00000342B013C0129813A814B815C81C50169
:1036F000B4010E94FF339B01AC01C301B2010E94DF
:10370000E0344B015C0129813A814B815C81C70126
:10371000B6010E94FF33A50194010E941737609300
:10372000620170936301809364019093650120ECC2
:1037300031EE44E65EE4C501B4010E9417370E94F1
:10374000C6340E944D35603DB7E07B078105910589
:1037500008F0ACC3ED81FE811582AD81BE81149667
:103760007C936E93139780918601809387018F5F7E
:10377000863009F4D4C3809386012091670130918B
:1037800068014091690150916A01B8018DA99CA915
:103790000E94DC3618160CF0C5C3E0918101F0914F
:1037A0008201C801ADA9BCA985A396A3A7A3B0A710
:1037B00089819A81AB81BC81809356019093570196
:1037C000A0935801B093590190918801809186018E
:1037D000981300CE02C40E94B5241C01909382016C
:1037E00080938101009709F4F8C3809155011091ED
:1037F0002805882319F010925501BEC0809154010C
:103800008F5F853019F08093540102C010925401EB
:10381000E091540121E12E9FF0011124E053FE4F6D
:10382000F0938001E0937F01D1018C918083119608
:103830004D915D916D917C91149703E0440F551F5C
:10384000661F771F0A95D1F7418352836383748380
:1038500015964D915D916D917C91189783E0440F81
:10386000551F661F771F8A95D1F745835683678357
:10387000708719964D915D916D917C911C9793E0A5
:10388000440F551F661F771F9A95D1F741875287BE
:10389000638774871D966D917D918D919C91509752
:1038A0006B017C0123E0CC0CDD1CEE1CFF1C2A9577
:1038B000D1F7C586D686E786F08A0E94793560936F
:1038C0005601709357018093580190935901F1016B
:1038D00025A136A147A150A50E94E0349B01AC016F
:1038E00060935A0170935B0180935C0190935D013A
:1038F00060E070E080EA9FE30E94E03460935E0144
:1039000070935F0180936001909361011092620156
:10391000109263011092640110926501812F8077EB
:10392000E1F0609173017091740180917501909143
:10393000760160936B0170936C0180936D0190939D
:103940006E019B01AC010E941737D10151966D9316
:103950007D938D939C9354970FC0F1016189728977
:10396000838994890E94A43760936B0170936C01E2
:1039700080936D0190936E0110926701109268011F
:103980001092690110926A01D10191968D909D90DB
:10399000AD90BC909497A501940160E070E080E048
:1039A0009FE30E94E0342B013C011077F101C5A098
:1039B000D6A0E7A0F0A4112309F44DC0F2E0F093E3
:1039C0006601D10151962D913D914D915C91549795
:1039D0002D833E834F8358870E9417379B01AC018C
:1039E000C701B6010E94FF332B013C0120E030E00B
:1039F000A9010E94D93487FF1DC0A5019401C5010A
:103A0000B4010E940034A70196010E9417379B0160
:103A1000AC016D817E818F8198850E94FF330E9469
:103A2000A437609373017093740180937501909330
:103A30007601D7CC4092670150926801609269018B
:103A400070926A01109273011092740110927501C4
:103A500010927601C6CC10926601C0927701D09286
:103A60007801E0927901F0927A010E94C5244B011D
:103A70005C0160937301709374018093750190935E
:103A800076019B01AC010E94173769837A838B838F
:103A90009C830091810110918201D80195962D910E
:103AA0003D914D915C91989729873A874B875C8728
:103AB00051962D913D914D915C9154972D833E836C
:103AC0004F8358879B01AC016D817E818F819885E2
:103AD0000E94FF339B01AC01C301B2010E94173762
:103AE0009B01AC0169857A858B859C850E94003499
:103AF00020E030E040E05FE30E9417376B017C017B
:103B000020E030E0A9010E94DC3618160CF0ACC0B1
:103B100029853A854B855C85C701B6010E94D93459
:103B200087FF8EC0F801858C968CA78CB0A0298168
:103B30003A814B815C81C501B4010E94FF339B0136
:103B4000AC01C301B2010E94173760937B017093EF
:103B50007C0180937D0190937E01A70196010E94D4
:103B6000D93487FF3DC0C501B4010E94A4376093DA
:103B70006F01709370018093710190937201A501A0
:103B800094016D817E818F8198850E94D934811145
:103B900004C0F1E0F093660124CC2D813E814F8179
:103BA0005885C501B4010E94FF339B01AC01C301DC
:103BB000B2010E9417379B01AC01609177017091AF
:103BC00078018091790190917A010E94FF3360938E
:103BD0007701709378018093790190937A0101CCF9
:103BE000C0927701D0927801E0927901F0927A0147
:103BF000C0927B01D0927C01E0927D01F0927E0127
:103C0000D80191966D917D918D919C9194979B0196
:103C1000AC010E940034A70196010E941737298148
:103C20003A814B815C810E9400340E94A4376093EA
:103C30006F01709370018093710190937201D1CBE9
:103C4000B2E0B093660180916B0190916C01A091FC
:103C50006D01B0916E0180936F0190937001A093FC
:103C60007101B0937201BDCB10927701109278016F
:103C70001092790110927A0180926F0190927001F6
:103C8000A0927101B0927201ACCBE13061F041C001
:103C9000E2E0EF87AACCA501940169817985C10191
:103CA0000E9400347CC0A70196016C8D7D8D8E8DA5
:103CB0009F8D0E9417379B01AC016C897D898E898D
:103CC0009F890E94FF338B018DAB9CAB28A139A14A
:103CD0004AA15BA10E94D93487FF93CC28A139A1C6
:103CE0004AA15BA16C897D898E899F890E94FF33DF
:103CF0002C8D3D8D4E8D5F8D0E94E0346B017C01DB
:103D000008A119A15AA15DAB8BA18CAB92E09F8752
:103D100078CCAD85BE8591962D913D914D915C916C
:103D20009497C701B6010E9417374B015C019B01B4
:103D3000AC0169817985C1010E94DC3618169CF5B9
:103D400020E030E040E05FE3C501B4010E94173796
:103D50009B01AC0169817985C1010E94FF339B0100
:103D6000AC01C701B6010E9417379B01AC016C89F9
:103D70007D898E899F890E94FF338B018DAB9CAB1F
:103D80002CA13DA14EA15FA10E94DC3618165CF467
:103D9000A501940169817985C1010E94FF3369837E
:103DA00079871C012ECC2CA13DA14EA15FA16C896D
:103DB0007D898E899F890E94FF339B01AC010E94FF
:103DC00000346B017C0128A939A94AA95BA9698142
:103DD0007985C1010E9400349B01AC01C701B60185
:103DE0000E94E0346B017C010CA11DA1BEA1BDAB02
:103DF000EFA1ECAB06CC2EE333EC4EE259E3C3016A
:103E0000B2010E9400342B013C01288939894A897A
:103E10005B89C301B2010E94FF336B017C012CA1BD
:103E20003DA14EA15FA1B8018DA99CA90E94DC36DD
:103E300018167CF089819985D10180936B0190934C
:103E40006C01A0936D01B0936E013F8530936601C4
:103E500004CC0C8B1D8B4DA94E8B5CA95F8B5ECB6C
:103E600080912805807709F42ECC10926B01109276
:103E70006C0110926D0110926E011092620110920D
:103E800063011092640110926501C0925601D092B4
:103E90005701E0925801F0925901A3019201C70124
:103EA000B6010E94E034AD85BE8570C0603AFFE087
:103EB0007F078105910510F4E1E009C06034FFE15E
:103EC0007F078105910510F4E2E001C0E3E0AD81D8
:103ED000BE811596EC93AD81BE8115962C911597F8
:103EE000022E04C096958795779567950A94D2F728
:103EF000E985FA8502C0EE0FFF1F2A95E2F7ED93E0
:103F0000FC9361157105F1E08F07910508F425CC4C
:103F10002FEF3FEFED81FE813483238324CC109279
:103F200086012BCC20E030E0A901B8018DA99CA925
:103F30000E94DC3618160CF049C010926B011092EA
:103F40006C0110926D0110926E011092620110923C
:103F500063011092640110926501C0925601D092E3
:103F60005701E0925801F09259010091810110919E
:103F7000820120915A0130915B0140915C01509186
:103F80005D01C701B6010E94E034D80195966D939A
:103F90007D938D939C939897E5960FB6F894DEBF2A
:103FA0000FBECDBFDF91CF911F910F91FF90EF908A
:103FB000DF90CF90BF90AF909F908F907F906F9049
:103FC0005F904F903F902F900C941A28109282018E
:103FD000109281010E94A124F7CBE5960FB6F894C8
:103FE000DEBF0FBECDBFDF91CF911F910F91FF902C
:103FF000EF90DF90CF90BF90AF909F908F907F9089
:104000006F905F904F903F902F900895F999FECF59
:1040100092BD81BD81E08FBB80B50895F894F99978
:10402000FECF92BD81BD81E08FBB40B54627842F76
:10403000992787FD9095262F30E082239323892BA3
:1040400039F06F3F19F060BD84E006C084E104C020
:10405000442321F060BD84E28FBBF99A78940895DF
:104060009F92AF92BF92CF92DF92EF92FF920F9307
:104070001F93CF93DF938C017A016B01C40ED51E81
:10408000EB01912C5C01A61AB70ACE018A0D9B1D8B
:10409000CC15DD0591F0911009C0692D772767FDDA
:1040A0007095272F221F2227221F01C021E069912E
:1040B000922E960E0E940E20E8CF692DC8018E0D1B
:1040C0009F1DDF91CF911F910F91FF90EF90DF9097
:1040D000CF90BF90AF909F900C940E209F92AF9284
:1040E000BF92CF92DF92EF92FF920F931F93CF93E5
:1040F000DF938B017A016C01C40ED51EEC01912C6B
:104100005B01A81AB90AC5018C0F9D1FCC15DD05EE
:1041100091F00E940620911009C0292D332727FD18
:104120003095232F221F2227221F01C021E0922E2B
:10413000980E8993E8CFC8018E0D9F1D0E9406201E
:1041400021E030E0981611F020E030E0C901DF9165
:10415000CF911F910F91FF90EF90DF90CF90BF9084
:10416000AF909F90089521E5829FC001112440E502
:1041700050E09D5F0C94302040E550E0BC018EEA99
:1041800093E00C9430202DE0829FC00111244CE07C
:1041900050E09E5F0C94302069E080E090E00E9447
:1041A0000E204DE450E060E876E081E090E00C9471
:1041B0003020EF92FF920F931F93CF93DF93CDB7F1
:1041C000DEB72C970FB6F894DEBF0FBECDBF182F09
:1041D00080FFC1C08AE08093B00689E18093B30676
:1041E0001092B1061092B20683E08093B4068AE082
:1041F00097EDA3E2BCE38093B5069093B606A09337
:10420000B706B093B8068FE692E1A3E0BBE38093D4
:10421000B9069093BA06A093BB06B093BC06109261
:10422000BE0680E090E0A8ECB1E48093BF069093D6
:10423000C006A093C106B093C20640E050E06AEF0A
:1042400073E44093C3065093C4066093C50670930D
:10425000C6068AEF90E09093C8068093C70680E078
:1042600090E0A0E8BFE38093C9069093CA06A093AC
:10427000CB06B093CC061092BD0680E090E0AAE792
:10428000B3E48093800690938106A0938206B09356
:1042900083068093840690938506A0938606B09348
:1042A00087068093880690938906A0938A06B09328
:1042B0008B0640938C0650938D0660938E06709308
:1042C0008F064093900650939106609392067093E8
:1042D00093064093940650939506609396067093C8
:1042E000970640E050EA6CE077E4409398065093DC
:1042F000990660939A0670939B0640939C06509390
:104300009D0660939E0670939F064093A00650936F
:10431000A1066093A2067093A30640E050E068E413
:1043200073EC4093A4065093A5066093A606709381
:10433000A7064093A8065093A9066093AA06709317
:10434000AB064093AC065093AD066093AE067093F7
:10435000AF060E94CC2011FF10C0CE0101967C0157
:104360008CE0F70111928A95E9F700E0B701802F00
:104370000E94C3200F5F0830C9F712FF0AC060E037
:1043800080E093E00E940E2060E081E593E00E94CF
:104390000E2013FF05C060E08EEA93E00E940E201D
:1043A0002C960FB6F894DEBF0FBECDBFDF91CF9134
:1043B0001F910F91FF90EF9008951F93CF93DF937C
:1043C000182FEB0181E5189FB00111247D5F40E5B6
:1043D00050E0CE010E946E20892B39F41882BE0174
:1043E000812F0E94B32080E001C081E0DF91CF9156
:1043F0001F910895CF93DF93EC0140E550E06EEA02
:1044000073E00E946E20892B31F41882CE010E9445
:10441000BC2080E001C081E0DF91CF9108951F931F
:10442000CF93DF93182FEB018DE0189FB00111247B
:104430007E5F4CE050E0CE010E946E20892B59F443
:104440008CE0FE0111928A95E9F7BE01812F0E944E
:10445000C32080E001C081E0DF91CF911F910895DA
:1044600080E090E00E940620893059F44DE450E04D
:1044700061E070E080E896E00E946E2021E0892BE8
:1044800009F420E0822F0895CF92DF92EF92FF92FD
:10449000CF93DF93C82F6A017B0120E030E0A901B0
:1044A000C701B6010E94D93487FDE6C0C43608F4BE
:1044B00045C02CE92C0F80E02330B8F530E0823085
:1044C00079F0F901EE0FFF1FEE0FFF1F833011F19E
:1044D000813019F0E058F94F23C0E457F94F20C05C
:1044E000E901CC0FDD1FCC0FDD1FC856D94F20E0EE
:1044F00030E040E752E4C701B6010E94173720E0E0
:1045000030E040E752E40E941737688379838A835A
:104510009B83AEC0EC55F94FF7FAF094F7F8F0949E
:10452000C082D182E282F382A3C08F5F2A3008F476
:10453000A5C0843009F4A2C02A50BECFC701B6017D
:104540000E94E5370E944D358C2F90E08C3191050B
:1045500008F094C0FC01E75AFF4F0C943D386330DB
:1045600008F48EC06093B00683C06093B30680C029
:104570006093B10602C06093B2060E940F1978C022
:104580008091BD06662311F0846007C08B7F05C053
:104590008091BD06662321F080648093BD0668C0CB
:1045A0008F7BFBCF8091BD06662311F08068F5CF2D
:1045B0008F77F3CF6093B4065BC0C092B506D092FC
:1045C000B606E092B706F092B80652C0C092B9069D
:1045D000D092BA06E092BB06F092BC0649C0809128
:1045E000BD06662311F08160D8CF8E7FD6CF809133
:1045F000BD06662321F084FF45C08062CECF8F7D4B
:10460000CCCF8091BD06662311F0886001C0877F02
:104610008093BD060E9410292BC08091BD066623A1
:1046200011F08061BACF8F7CB8CF6093BE0620C0F6
:10463000C092BF06D092C006E092C106F092C206B8
:1046400017C0C092C306D092C406E092C506F0928D
:10465000C6060EC070E07093C8066093C70608C017
:10466000C092C906D092CA06E092CB06F092CC0660
:104670000E94CC2080E007C084E005C083E003C036
:1046800086E001C08AE0DF91CF91FF90EF90DF904C
:10469000CF9008950E943022811108C087E00E94C7
:1046A0003E2D8FEF0E94D9200C94ED2D0895882384
:1046B00021F0813021F488E0089584E0089580E1BC
:1046C0000895882321F0813021F480E4089580E268
:1046D000089580E80895882321F0813021F484E052
:1046E000089582E0089580E108954F925F926F925D
:1046F0007F928F929F92AF92BF92CF92DF92EF9272
:10470000FF920F931F93CF93DF93109143021111E8
:1047100001C012E1115000914102101709F4EFC0DD
:1047200089E2189FE0011124CB5BDD4F8D889E88C4
:10473000AF88B88C69A17AA18BA19CA19B01AC0127
:104740000E9400342DA13EA14FA158A50E94173709
:104750006B017C019B01AC01B401C5010E94D934FD
:1047600087FF02C064017501A601B701498B5A8B0E
:104770006B8B7C8B111101C012E177247A94710E3E
:10478000701619F029E2622E27C0809144020813A6
:1047900051C00E9499194EC0679C800111240B5B87
:1047A0001D4F711002C092E1792E7A9480914402DB
:1047B000781202C00E949919F801C588D688E78846
:1047C000F08CA701960161897289838994890E947E
:1047D000D934811106C0E801809141027812DCCF02
:1047E00029C0F80161A172A183A194A19B01AC0130
:1047F0000E940034F80125A136A147A150A50E94CE
:10480000173729893A894B895C890E9400344B010A
:104810005C01A70196010E94D934F80187FF05C009
:10482000818A928AA38AB48AD6CFC18AD28AE38A3D
:10483000F48AD1CF60904102F9E26F9E8001112489
:104840000B5B1D4F77247394760C82E1781201C0C4
:10485000712C5090430289E2482E751409F44DC022
:10486000479CE0011124CB5BDD4FF80181889288E1
:10487000A388B488C988DA88EB88FC88A7019601E8
:10488000C501B4010E94D93487FF23C0F80161A19A
:1048900072A183A194A19B01AC010E940034F80194
:1048A00025A136A147A150A50E9417379B01AC0155
:1048B000C501B4010E9400344B015C01A7019601BF
:1048C0000E94D93487FF05C0898A9A8AAB8ABC8A3C
:1048D000672C2D893E894F89588D69897A898B8902
:1048E0009C890E94D934811101C0672C7394F2E134
:1048F0007F1201C0712C8E01B0CF60924102DF9116
:10490000CF911F910F91FF90EF90DF90CF90BF90CC
:10491000AF909F908F907F906F905F904F90089591
:104920008CE1E5E2F2E0DF011D928A95E9F7109251
:1049300044021092430281E08093420210924102AD
:1049400008959091440280914302891769F081E0B3
:10495000890F823109F480E020914102921302C054
:104960008093410280934402089580914402909183
:104970004302981739F029E2829FC00111248B5B12
:104980009D4F089580E090E00895E0914402EF5F2C
:10499000E23109F4E0E080914302E81761F089E236
:1049A000E89FF0011124EB5BFD4F618972898389D7
:1049B00094890C94A43760E070E0CB01089581E005
:1049C0002091440290914202291380E008952F9291
:1049D0003F924F925F926F927F928F929F92AF928F
:1049E000BF92CF92DF92EF92FF920F931F93CF93DC
:1049F000DF93CDB7DEB7AD970FB6F894DEBF0FBE2D
:104A0000CDBF142F052F6B8F7C8F822E20914302F8
:104A100039E2239F10011124F101EB5BFD4F1F01CF
:104A2000158616861786108A15A216A217A210A63A
:104A3000108249E956E766E97EE741A352A363A3E2
:104A400074A35C0140E8E42E46E0F42E9E01235F4F
:104A50003F4F38A32F8F85E292E09E8F8D8F6F019D
:104A6000FE013196FAA3E9A3912CF50161917191B0
:104A7000819191915F01F7012081318142815381C0
:104A80000E9417370E94E736EF8DF8A1619371936A
:104A900081939193F8A3EF8FED8DFE8D419051900E
:104AA00061907190FE8FED8F6419750986099709E1
:104AB0002B013C0197FF07C0442455243201461ABC
:104AC000570A680A790AF601418252826382748227
:104AD000F1012585368547855089421653066406BF
:104AE000750610F429013A01F1014586568667865C
:104AF000708A0E947B35F701208131814281538188
:104B00000E94E0342B013C01E9A1FAA16193719369
:104B100081939193FAA3E9A320E030E0A9010E94D8
:104B2000D93487FF0AC0F1019081892D9DA70E9489
:104B300061239DA5892BF1018083A3019201C3010B
:104B4000B2010E941737F10125A136A147A150A556
:104B50000E940034F10165A376A387A390A79394E4
:104B6000F4E0EF0EF11C24E0C20ED11C33E09312EE
:104B70007CCF0E94A4376B017C01F10165A376A371
:104B800087A390A785859685A785B089892B8A2BD1
:104B90008B2B09F4FCC120E030E0A901612F702FBC
:104BA0008B8D9C8D0E94D93487FD21C0882061F0B7
:104BB000A7019601612F702F8B8D9C8D0E94173756
:104BC000162F072F8B8F9C8F20E030E040E85FE3AB
:104BD000612F702F8B8D9C8D0E94D93487FF0DC063
:104BE00010E000E030E83B8F8FE38C8F06C019E9BE
:104BF00006E7F6E9FB8F2EE72C8FA701960160E010
:104C000070E080E89FE30E94E03469A77AA78BA751
:104C10009CA7E1E3F2E0FAA3E9A32CE836E038A38D
:104C20002F8FCE010D969A8F898FFE013196FE8FC0
:104C3000ED8FC12CD12C7601ED8DFE8D8080918081
:104C4000A280B38020E030E0A901C501B4010E9438
:104C5000D934882309F47FC029A53AA54BA55CA5C2
:104C6000C501B4010E9417374B015C01ED8DFE8D2B
:104C700060837183828393839B01AC0160E070E069
:104C800080E89FE30E94E0342B013C01E89477F830
:104C9000EF8DF8A12081318142815381C301B2019E
:104CA0000E9417376BA37CA38DA39EA39B01AC012D
:104CB000612F702F8B8D9C8D0E94D93487FF06C089
:104CC0001BA30CA3FB8DFDA32C8D2EA3F101F1A141
:104CD000FB8FF101F2A1FC8FF101F3A1FFA3F10120
:104CE000F4A1F8A7EF8DF8A1248535854685578571
:104CF000C301B2010E9417373B018C019B01AC013B
:104D00006B8D7C8D8FA198A50E94D93487FF04C03C
:104D10006B8C7C8C0FA118A5C301D801F10181A374
:104D200092A3A3A3B4A3E9A1FAA120813181428176
:104D30005381C501B4010E9417379B01AC01C70123
:104D4000B6010E94FF336B017C011BA10CA1FDA1E8
:104D5000FB8F2EA12C8F8D8D9E8D04969E8F8D8F17
:104D6000E9A1FAA13496FAA3E9A32F8D38A12C5F0B
:104D70003F4F38A32F8FE98DFA8D8E179F0709F0CB
:104D80005BCF9091430280914402981306C0F101D9
:104D9000118A128A138A148A0BC02FEE3FEF4FE755
:104DA0005FE3C701B6010E94DC36181634F4F10146
:104DB000118E128E138E148E5BC02FEE3FEF4FE7D5
:104DC0005FEBC701B6010E94DC36181644F03FEED7
:104DD000C32EDD24DA943FE7E32E3FEBF32EA70149
:104DE000960160E070E080E89FE30E94FF3320E0DE
:104DF00030E040E05FE30E9417370E94A4376B0168
:104E00007C012091B5063091B6064091B7065091CD
:104E1000B806F10161A172A183A194A10E94173784
:104E2000A70196010E9417374B015C01A70196016B
:104E300060E070E080E89FE30E94FF339B01AC01DB
:104E4000C501B4010E94E0346B017C0120E030E038
:104E5000A9010E94D93487FF04C0C12CD12CE12CB8
:104E6000F12CA601B701F101418F528F638F748F2E
:104E7000212F302F4B8D5C8D612F702F8B8D9C8D52
:104E80000E941737162F072FF82EE92E862F902F06
:104E9000AF2DBE2DF101858F968FA78FB0A3A18C6A
:104EA000B28CC38CD48C60903D0270903E02809096
:104EB0003F02909040029301A401612F702F8F2D2B
:104EC0009E2D0E94D93487FD0BC09301A401B5012A
:104ED000C6010E94D93487FD11C0530164010EC080
:104EE000212F302F4F2D5E2DB501C6010E94D934E0
:104EF00087FD04C0A12EB02ECF2CDE2CC501D6011B
:104F0000F101858B968BA78BB08F8CE0FE013196DB
:104F1000A1E3B2E001900D928A95E1F7812F902FE5
:104F2000AF2DBE2D80933D0290933E02A0933F0291
:104F3000B09340028CE0FE013D96A5E2B2E0019004
:104F40000D928A95E1F780914202809343028F5F30
:104F5000823109F480E080934202AD960FB6F89456
:104F6000DEBF0FBECDBFDF91CF911F910F91FF909C
:104F7000EF90DF90CF90BF90AF909F908F907F90F9
:104F80006F905F904F903F902F900C947523AD964B
:104F90000FB6F894DEBF0FBECDBFDF91CF911F914A
:104FA0000F91FF90EF90DF90CF90BF90AF909F90C8
:104FB0008F907F906F905F904F903F902F900895CB
:104FC00080912B0590912C05A0912D05B0912E0577
:104FD0008093250290932602A0932702B093280283
:104FE00080912F0590913005A0913105B091320547
:104FF0008093290290932A02A0932B02B0932C0253
:105000008091330590913405A0913505B091360516
:1050100080932D0290932E02A0932F02B093300222
:1050200008958091430290914402891708F48E5E9E
:10503000891B08950E94991980914402809341022E
:105040000C9475236F927F928F929F92AF92BF9232
:10505000CF92DF92EF92FF920F931F93CF93DF9344
:105060007C018B016A01FB018081F701E80FF11DD2
:105070002081EF012D3229F4229621816624639448
:1050800007C02B3211F0219602C022962181612C9B
:10509000A12CB12C712C60E070E0CB01FE0130ED51
:1050A000932E920E29E02915C8F0B39428E02B1511
:1050B00088F0A1107A94A5E0B0E09B01AC010E94B9
:1050C0000438660F771F881F991F690D711D811D98
:1050D000911D0BC0A11009C0739407C02EEF92124E
:1050E00007C0A11005C0AA24A39421962081D6CF81
:1050F000BB2009F449C00E9479354B015C0120E0D6
:1051000030E0A9010E94D934882361F18FEF78162D
:105110006CF42AE037ED43E25CE3C501B4010E9480
:1051200017374B015C0173947394F0CF78120BC066
:105130002DEC3CEC4CEC5DE3C501B4010E9417374B
:105140004B015C010FC0772069F020E030E040E2C5
:1051500051E4C501B4010E9417374B015C017A94F8
:1051600017149CF3662021F0B7FAB094B7F8B09406
:10517000F60180829182A282B382CE19DF09C150EA
:10518000F801C08381E001C080E0DF91CF911F91E1
:105190000F91FF90EF90DF90CF90BF90AF909F90D6
:1051A0008F907F906F900895009741F0EFE9FFE0B6
:1051B0003197F1F700C000000197F6CF08958F9264
:1051C0009F92AF92BF92CF92DF92EF92FF926901CE
:1051D0007A019B01AC010E9417374B015C01A701CA
:1051E0009601C701B6010E9417379B01AC01C501AA
:1051F000B4010E940034FF90EF90DF90CF90BF90F9
:10520000AF909F908F900C94A437EBE6F0E08081F4
:10521000897E8083E8E6F0E080818E7F8083089538
:1052200084B1897E84B985B1866185B98091BD06D6
:1052300083FF0BC080916B00866180936B0080912F
:10524000680081608093680008950C940529CF92CE
:10525000DF92FF920F931F93CF93DF931F92CDB7EF
:10526000DEB793B196718091BD0686FD02C086E1DE
:1052700098279923D9F0C12CD12CF12C01E010E012
:105280008C2D99830E946B239981892339F0980191
:105290000C2C01C0220F0A94EAF7F22A8FEFC81AE9
:1052A000D80AE3E0CE16D10459F701C0F12C8F2DB6
:1052B0000F90DF91CF911F910F91FF90DF90CF90D2
:1052C00008951F920F920FB60F9211242F933F93C0
:1052D0004F935F936F937F938F939F93AF93BF93FE
:1052E000EF93FF9380912805813071F080914705FD
:1052F00081110AC00E94D1089FB7F8948091470598
:105300008360809347059FBFFF91EF91BF91AF915D
:105310009F918F917F916F915F914F913F912F91CD
:105320000F900FBE0F901F9018952F923F924F92A3
:105330005F926F927F928F929F92AF92BF92CF9225
:10534000DF92EF92FF920F931F93CF93DF93CDB72E
:10535000DEB767970FB6F894DEBF0FBECDBF582EED
:10536000809127058111A1C124EAA22E26E0B22E48
:105370009E01235F3F4F190100E010E0C12CD12CAA
:105380007601652C712C802F0E945723D1018D93BB
:105390001D01C301002E02C0959587950A94E2F77E
:1053A00080FF1AC020E030E040EC5FEBF501608147
:1053B0007181828193810E941737688B472E4C013F
:1053C000262F372FAC01C701B6010E94DC36181614
:1053D0001CF0C888D42C74010F5F1F4FF4E0AF0E8F
:1053E000B11C0330110579F68090C3069090C40675
:1053F000A090C506B090C60624E0288B01E06BE2C1
:1054000075E0CE0101960E94E5332090BE06312C56
:10541000FE0131968BE295E09F8B8E8B80E090E0D1
:10542000412C10E0B701A60170589301082E02C06C
:10543000359527950A94E2F720FF28C04394AE895A
:10544000BF891D921D921D921C9213979101082EE7
:1054500002C0359527950A94E2F720FF03C0002388
:1054600019F007C0002329F0C082D182E282F382C2
:1054700004C040835183628373832DE030E02C0F9E
:105480003D1F280F391FD9012C91122B01963496FC
:105490002E893F892C5F3F4F3F8B2E8B83309105A8
:1054A00021F6642D70E080E090E00E9479350E9442
:1054B000A4379B01AC01C501B4010E941737AB01B1
:1054C000BC01109344054A8B5B8B6C8B7D8B0E94D7
:1054D000E02720E04A895B896C897D89CE010196AD
:1054E0000E94E7240E94BB190E9495160023E9F050
:1054F0000E942729FE013D9620E030E090E0619176
:10550000462F412359F0AC01022E02C05595479514
:105510000A94E2F740FF02C0609516232F5F3F4FC9
:105520002330310561F7109344050E94BB19809127
:1055300045058473C1F080914505807329F00E9470
:10554000D1080E94D314B1C00111AAC00E9427291A
:105550008521A9F79FB7F894809145058B7F8093AB
:1055600045059FBF04C0812F8C7109F0BFCF0E94F9
:105570004B190E9490248091C7069091C8060E9402
:10558000D42831E00327C9F020E030E040EA50E4BD
:105590006091C9067091CA068091CB069091CC06A5
:1055A0000E9417376B017C018090BF069090C00667
:1055B000A090C106B090C20610C0C090C906D0909D
:1055C000CA06E090CB06F090CC068090C30690907F
:1055D000C406A090C506B090C60688898150888B05
:1055E00081110DCF8091BE06A82FB0E0B98BA88B9A
:1055F000C090C906D090CA06E090CB06F090CC06C9
:105600001601270157FA509457F8509480E8A82EB5
:1056100086E0B82E9BE2892E95E0992E00E010E0FE
:10562000C301002E02C0959587950A94E2F780FF8A
:1056300029C088899989002E02C0959587950A947A
:10564000E2F7F50180FF0EC024A135A146A157A1C4
:10565000C701B6010E940034D5012D913D914D91B5
:105660005C9106C02081318142815381C201B10128
:105670000E9417370E94E736D4016D937D938D9376
:105680009C9313970F5F1F4FB4E08B0E911CE4E0C7
:10569000AE0EB11C0330110519F60E94E02705C0BB
:1056A0008091450582FF56CF4ACF67960FB6F89492
:1056B000DEBF0FBECDBFDF91CF911F910F91FF9045
:1056C000EF90DF90CF90BF90AF909F908F907F90A2
:1056D0006F905F904F903F902F900895BF92CF9220
:1056E000DF92EF92FF920F931F93CF93DF938C0182
:1056F000C4EAD6E0BB24B394F801C190D190E19004
:10570000F1908F0120E030E0A901C701B6010E94AD
:10571000DC3618164CF0288139814A815B81C7013B
:10572000B6010E94D93487FDB0922A0580912A05DE
:10573000882361F1809128058830A9F00E94D10862
:105740009FB7F894809147058560809347059FBF78
:10575000DF91CF911F910F91FF90EF90DF90CF904D
:10576000BF900C94D3149FB7F8948091450588603E
:10577000809345059FBF0E94D31480912705811116
:105780000BC0809128058111F6CFD8CF2496F6E082
:10579000C03BDF0709F0B0CFDF91CF911F910F9190
:1057A000FF90EF90DF90CF90BF900895CF93DF935D
:1057B000EC018991882319F00E941614FACFDF9129
:1057C000CF910895CF93DF93FC018491EF0121964F
:1057D000882321F00E941614FE01F7CFDF91CF91AC
:1057E0000895EF92FF920F931F93CF93DF931F9231
:1057F000CDB7DEB7262FEDB6FEB66DB77EB7641B0C
:1058000071090FB6F8947EBF0FBE6DBF0DB71EB7FE
:105810000F5F1F4F302FF8019E2F931B941728F412
:10582000622F0E940F389193F7CF442361F0F80163
:10583000E40FF11D31978081805D49830E94161429
:1058400049814150F2CF0FB6F894FEBE0FBEEDBEB7
:105850000F90DF91CF911F910F91FF90EF900895DE
:1058600048E062E00C94F12B8A3020F0843620F47A
:1058700042E003C041E001C043E06AE00C94F12B38
:105880008F929F92AF92BF92CF92DF92EF92FF9250
:105890000F931F93CF93DF93CDB7DEB72A970FB641
:1058A000F894DEBF0FBECDBF6B017C01142F20E04A
:1058B00030E0A9010E94D93487FF07C08DE20E9421
:1058C0001614F7FAF094F7F8F094012F023060F014
:1058D00020E030E048EC52E4C701B6010E941737DF
:1058E0006B017C010250F2CF10FF0AC020E030E0D3
:1058F00040E251E4C701B6010E9417376B017C01F9
:1059000020E030E040E05FE3C701B6010E940034D0
:105910000E944835E1E0F0E0EC0FFD1FE10FF11DC2
:105920002EE22083D12C5AE0852E912CA12CB12C73
:105930006115710581059105A9F0D11201C0D394BB
:10594000EE24E394F12CEC0EFD1EED0CF11CA501F0
:1059500094010E941B38605DF7016083B901CA01A0
:10596000D394E6CF80E3D11648F4E1E0F0E0EC0F09
:10597000FD1FED0DF11D8083D394F5CF8D2DD11238
:105980000BC0D394D3948F5FE1E0F0E0EC0FFD1FE8
:10599000E80FF11D80E38083DD2041F0FE01ED0D75
:1059A000F11D80810E941614DA94F6CF2A960FB664
:1059B000F894DEBF0FBECDBFDF91CF911F910F9145
:1059C000FF90EF90DF90CF90BF90AF909F908F901F
:1059D00008952091BD0620FF08C02BE832E441E283
:1059E0005DE30E94173744E001C043E00C94402C73
:1059F0002091BD0620FF08C02BE832E441E25DE3C0
:105A00000E94173741E001C040E00C94402C43E075
:105A10000C94402C3D98459A08951092CD06909193
:105A2000BD0697FD03C090E29093CD06882331F028
:105A30008091CD0690E289278093CD06089586B1A6
:105A400080729091CD068927089580914605813016
:105A5000A1F40E941F2D882381F0109246058CE04E
:105A6000EBE2F5E0A7E3B5E001900D928A95E1F74E
:105A7000809145058064809345050895CF93C82F94
:105A8000811103C085E498E044C08DE398E00E9452
:105A9000E22B4C2F50E0FA013197E631F10580F509
:105AA000EB58FF4F0C943D3885E298E002C083E14B
:105AB00098E00E94E22B2BC081E098E0FACF87EFBC
:105AC00097E0F7CF86EE97E0F4CF87ED97E0F1CF40
:105AD00086EB97E0EECF8DEA97E0EBCF82EA97E096
